:020000040000FA
:060000000A128A1110280B
:10000800FE00030E83120313C5000A08C6007F080A
:10001800C7000A128A15282F0A128A111328831278
:100028000313CC01CD01CE01CF01D001D10183163C
:100038000313B001B101B201B301B401B501B601B6
:10004800B701B801B901BA01BB01BC01BD01830107
:100058000A128A11182E8312031323088039A80064
:100068002808AD002308A8002807A9002908B3001C
:10007800A21F3F2840284128331433080319452874
:1000880046285528330A031D4A284B285328003090
:10009800A3000030A2000030A1000030A000A21789
:1000A8005D280030A3000030A2000030A10000301D
:1000B800A00027088039A8002808AD062708A8004E
:1000C8002807A9002908B200A61F6B286C286D28EC
:1000D800321432080319712872288128320A031D44
:1000E800762877287F280030A7000030A600003047
:1000F800A5000030A400A61789280030A70000300A
:10010800A6000030A5000030A400320803198D288D
:100118008E2893283308031D922893289C280030A2
:10012800A3000030A2000030A1000030A0008F2BF7
:100138002008A8002808F00026080A128A158D232E
:100148000A128A11710883120313B9007008B800E3
:100158003808A800A901AA01AB012B08B1002A0898
:10016800B0002908AF002808AE003908A800A90186
:10017800AA01AB012B08B7002A08B6002908B50068
:100188002808B4002108A8002808F00025080A1249
:100198008A158D230A128A11710883120313B90074
:1001A8007008B8003808A800A901AA01AB012808FE
:1001B800AE07290803110318013E0319E428AF0705
:1001C8002A0803110318013E0319EB28B0072B086E
:1001D80003110318013E0319F228B1073908A800D2
:1001E800A901AA01AB012808B407290803110318BB
:1001F800013E03190029B5072A0803110318013E17
:1002080003190729B6072B0803110318013E031920
:100218000E29B7072208A8002808F00024080A12A7
:100228008A158D230A128A11710883120313B900E3
:100238007008B8003808A800A901AA01AB0128086D
:10024800AE07290803110318013E03192C29AF072B
:100258002A0803110318013E03193329B0072B0894
:1002680003110318013E03193A29B1073908A800F8
:10027800A901AA01AB012808B4072908031103182A
:10028800013E03194829B5072A0803110318013E3E
:1002980003194F29B6072B0803110318013E031948
:1002A8005629B7070830A8000310AE0DAF0DB00DE2
:1002B800B10DA80B58292108A8002808F000240827
:1002C8000A128A158D230A128A11710883120313E0
:1002D800B9007008B8003808A8003908A900AA01B0
:1002E800AB012808AE07290803110318013E0319BA
:1002F8007E29AF072A0803110318013E031985292F
:10030800B0072B0803110318013E03198C29B10704
:100318002008A8002808F00025080A128A158D234D
:100328000A128A11710883120313B9007008B80001
:100338003808A8003908A900AA01AB012808AE07A7
:10034800290803110318013E0319AB29AF072A082E
:1003580003110318013E0319B229B0072B08031132
:100368000318013E0319B929B1070830A800031082
:10037800AE0DAF0DB00DB10DA80BBB292008A8001C
:100388002808F00024080A128A158D230A128A11F7
:10039800710883120313B9007008B8003808A80060
:1003A8003908A900AA01AB012808AE0729080311DA
:1003B8000318013E0319E129AF072A08031103189E
:1003C800013E0319E829B0072B0803110318013E61
:1003D8000319EF29B1072108A8002808F00026080A
:1003E8000A128A158D230A128A11710883120313BF
:1003F800B9007008B8003808A8003908A900AA018F
:10040800AB012808B407290803110318013E031992
:100418000E2AB5072A0803110318013E0319152AE5
:10042800B6072B0803110318013E03191C2AB70746
:100438002208A8002808F00025080A128A158D232A
:100448000A128A11710883120313B9007008B800E0
:100458003808A8003908A900AA01AB012808B40780
:10046800290803110318013E03193B2AB5072A0876
:1004780003110318013E0319422AB6072B0803117A
:100488000318013E0319492AB7072208A8002808BB
:10049800F00026080A128A158D230A128A1171089B
:1004A80083120313B9007008B8003808A800390887
:1004B800A900AA01AB0108300310A80DA90DAA0DC7
:1004C800AB0DFF3E031D602A2808B4072908031155
:1004D8000318013E0319712AB5072A0803110318E6
:1004E800013E0319782AB6072B0803110318013EA9
:1004F80003197F2AB7072E08A8002F08A90030087B
:10050800AA003108AB0018300310AB0CAA0CA90CD8
:10051800A80CFF3E031D882A2808B40729080311E0
:100528000318013E0319992AB5072A08031103186D
:10053800013E0319A02AB6072B0803110318013E30
:100548000319A72AB7070830A8000310AE0DAF0D8E
:10055800B00DB10DA80BA92A33083207A800A901CC
:10056800A90D2808823EB80029080318013EFF3E5D
:10057800B900DB2A0130A8000310B40DB50DB60D83
:10058800B70DA80BC02AB11FCA2ACB2ACC2A34140B
:100598000130A8000310AE0DAF0DB00DB10DA80BC2
:1005A800CE2AFF30B8070318B90AFF30B907B61FBB
:1005B800DE2ADF2ABE2AB201B11FE32AE42A002B71
:1005C800FF302E05A800FF302F05A900FF303005A9
:1005D800AA007F303105AB002B082A04290428041F
:1005E8000319F72AF82AFB2AB201B20A002B341C95
:1005F800FE2AFF2A002BF82A32080319042B052BA0
:10060800362B0130B407003003180130B50700302D
:1006180003180130B607003003180130B707371C3C
:10062800162B172B362B3408A8003508A9003608D6
:10063800AA003708AB000130AC002B0DAB0CAA0C9C
:10064800A90CA80CAC0B212B2B08B7002A08B60064
:100658002908B5002808B4000130B8070318B90AFA
:100668000030B9073908803AFF0080307F02031D47
:100678003F2BFF303802031C422B432B4E2B7F307D
:1006880083120313B7008030B6000030B500003085
:10069800B400832B831203133908803AFF0080309B
:1006A8007F02031D592B0130380203185C2B5D2B88
:1006B800692B003083120313B7000030B6000030F6
:1006C800B5000030B400AD01832B83120313380842
:1006D800A8002808B300FF30B405FF30B5057F3007
:1006E800B6050030B705331C7A2B7B2B7C2BB6174D
:1006F8003308A8000310280CA9002908B7002D0802
:10070800A8002808B7043708A3003608A20035084F
:10071800A1003408A00008008312031323088039BD
:10072800A8002808B0002308A8002807A90029085D
:10073800B200A21FA02BA12BA22B3214320803193E
:10074800A62BA72BB72B320A031DAB2BAC2BB42B34
:100758000030A3000030A2000030A1000030A0004B
:10076800A217A301BF2B0030A3000030A200003065
:10077800A1000030A00027088039A8002808B1008F
:10078800310830060319C92BCA2BCB2B3017270881
:10079800A8002807A9002908B100A61FD42BD52B2B
:1007A800D62B311431080319DA2BDB2BEB2B310A4A
:1007B800031DDF2BE02BE82B0030A7000030A6003C
:1007C8000030A5000030A400A617A701F32B0030C5
:1007D800A7000030A6000030A5000030A4003208B1
:1007E80031020318F82BF92B3D2C301FFC2BFD2B65
:1007F800012C8030A8002808B0063208A800280874
:10080800B3003108A8002808B2003308A800280857
:10081800B1002008A8002808B3002408A800280868
:10082800A0003308A8002808A4002108A800280868
:10083800B3002508A8002808A1003308A800280844
:10084800A5002208A8002808B3002608A800280840
:10085800A2003308A8002808A6002308A800280832
:10086800B3002708A8002808A3003308A800280810
:10087800A700B3013108A800A9012908AB00320874
:100888002802AA00031CAB032B08803AFF00803023
:100898007F02031D512C1A302A02031C542C552C9C
:1008A800922C831203132308220421042004031D1D
:1008B8005E2C602C0130612C0030A8002808B300A1
:1008C8000030A3000030A2000030A1000030A000DA
:1008D8003108A8002808B2009A2C331C742C752CF7
:1008E8007E2C3308A8000310280C0138A900290819
:1008F800B300802C0310B30C201C832C842C852C73
:10090800B3170130A800230DA30CA20CA10CA00C56
:10091800A80B872C0130A8002808B20783120313FC
:1009280031083202031C992C9A2C712C301B9D2CF7
:100938009E2CE92C3208031DA22CA32CAC2C0030D1
:10094800A3000030A2000030A1000030A000172E44
:100958002408A007250803110318013E0319B52C24
:10096800A107260803110318013E0319BC2CA2078E
:10097800270803110318013E0319C32CA307231CDE
:10098800C62CC72C9D2D331CCA2CCB2CD42C330839
:10099800A8000310280C0138A9002908B300D62C98
:1009A8000310B30C201CD92CDA2CDB2CB317013024
:1009B800A800230DA30CA20CA10CA00CA80BDD2CE5
:1009C8000130A8002808B2079D2D2308803AFF00AF
:1009D8002708803A7F02031DFB2C26082202031DEC
:1009E800FB2C25082102031DFB2C240820020318D8
:1009F800FE2CFF2C572DFF30A800FF30A900FF3038
:100A0800AA00FF30AB002408AC002508AD0026087A
:100A1800AE002708AF002008AC022108031C210FF4
:100A2800162D172DAD022208031C220F1C2D1D2D7B
:100A3800AE022308031C230F222D232DAF022C08FE
:100A4800A8072D0803182D0F2A2D2B2DA9072E08CE
:100A580003182E0F302D312DAA072F0803182F0A3F
:100A6800AB072B08A3002A08A2002908A100280820
:100A7800A0008030A8002808B006B309B30A3308DC
:100A8800031D472D482D652D0130A00700300318A0
:100A98000130A107003003180130A2070030031805
:100AA8000130A307652D2408A0022508031C250F83
:100AB800A1022608031C260FA2022708031C270FE1
:100AC800A3022308220421042004031D6C2D6D2D8C
:100AD800992D3308031D712D722D992D0030A30017
:100AE8000030A2000030A1000030A000172E013015
:100AF800A8000310A00DA10DA20DA30DA80B7D2D1C
:100B0800B31F872D882D892D2014331C8C2D8D2DF6
:100B1800902D0314B30D922D0310B30D3208031951
:100B2800962D972D992D0130B202A21F9C2D9D2D37
:100B38007B2DB101B31FA12DA22DB02D33087F3914
:100B48000319A72DA82DAB2DB101B10AB02D201C7A
:100B5800AE2DAF2DB02DA82D31080319B42DB52D0C
:100B6800E92D0130A007003003180130A10700303B
:100B780003180130A207003003180130A307231C13
:100B8800C62DC72DE92D2008A8002108A900220894
:100B9800AA002308AB000130AC002B0DAB0CAA0C4B
:100BA800A90CA80CAC0BD12D2B08A3002A08A20075
:100BB8002908A1002808A000320A0319E42DE52D10
:100BC800E92D0130A8002808B207320A0319ED2DD3
:100BD800EE2DF32D3208031DF22DF32D012E0030DA
:100BE800A3000030A2000030A1000030A0003208AD
:100BF800031DFF2D002E012EB001321C042E052EE0
:100C0800072EA2170B2E7F30A8002808A20532084D
:100C1800A8000310280CA9002908A300B01F152E4E
:100C2800162E172EA317080083160313880106141F
:100C38000530810064308312031381008B168B17F3
:100C48000B170B160A128A1160270A128A110A302A
:100C580083160313A9000030AA006430A0000030F6
:100C6800A1003D08A3003C08A2000A128A158925A4
:100C78000A128A11831603132108AC002008AB005E
:100C88000A128A15C7240A128A11831603132A081E
:100C9800BB002908BA000A30A9000030AA000A30AF
:100CA800A0000030A1003D08A3003C08A2000A12E1
:100CB8008A1589250A128A11831603132108AC00A4
:100CC8002008AB000A128A15C7240A128A11831653
:100CD80003132A08B9002908B8000A30A90000300F
:100CE800AA003D08AC003C08AB000A128A15C724CC
:100CF8000A128A11831603132A08B7002908B600B6
:100D08000A30A9000030AA006430A0000030A10019
:100D1800831203134D0883160313A30083120313CE
:100D28004C0883160313A2000A128A1589250A1291
:100D38008A11831603132108AC002008AB000A129D
:100D48008A15C7240A128A11831603132A08B500C4
:100D58002908B4000A30A9000030AA000A30A0000F
:100D68000030A100831203134D0883160313A30058
:100D7800831203134C0883160313A2000A128A1560
:100D880089250A128A11831603132108AC0020084A
:100D9800AB000A128A15C7240A128A118316031394
:100DA8002A08B3002908B2000A30A9000030AA00B6
:100DB800831203134D0883160313AC008312031325
:100DC8004C0883160313AB000A128A15C7240A12AB
:100DD8008A11831603132A08B1002908B000831268
:100DE80003135108803AFF0083307F02031DFE2E53
:100DF800E9305002031C012F022F062F831603131C
:100E0800BC01BD0183160313A401A40A01300A1210
:100E18008A156F240A128A1101300A128A15B4231E
:100E28000A128A11831603133A08303E0A128A15E9
:100E380008240A128A11831603133808303E0A124E
:100E48008A1508240A128A11831603133608303EBD
:100E58000A128A1508240A128A1183160313A40198
:100E6800A40A02300A128A156F240A128A11103055
:100E78000A128A15B4230A128A1183160313340836
:100E8800303E0A128A1508240A128A11831603139F
:100E98003208303E0A128A1508240A128A1183166B
:100EA80003133008303E0A128A1508240A128A11E0
:100EB8002B2E0A128A11102800300A128A1539249A
:100EC8000A128A1103300A128A156C230A128A112F
:100ED800063083160313A6001330A500AD30A40016
:100EE800A40B742FA50B742FA60B742F03300A12B2
:100EF8008A156C230A128A11063083160313A6007A
:100F08001330A500AD30A400A40B882FA50B882FA3
:100F1800A60B882F03300A128A156C230A128A112D
:100F2800063083160313A6001330A500AD30A400C5
:100F3800A40B9C2FA50B9C2FA60B9C2F02300A12EA
:100F48008A156C230A128A11063083160313A60029
:100F58001330A500AD30A400A40BB02FA50BB02F03
:100F6800A60BB02F02300A128A156C230A128A11B6
:100F7800063083160313A6001330A500AD30A40075
:100F8800A40BC42FA50BC42FA60BC42F08300A121C
:100F98008A156C230A128A1100300A128A156C23EA
:100FA8000A128A110C300A128A156C230A128A1145
:100FB80000300A128A156C230A128A1106300A12A6
:0A0FC8008A156C230A128A11080032
:1010000008308A000408840A82070034533470349C
:1010100065346534643428346B346D342F3468346B
:10102000723429343A34203400344434693473340B
:1010300074345F3443346F34763428346D34293457
:061040003A3420340034B4
:1016D80083160313A30083120313081188108316BB
:1016E800031323080A128A1539240A128A15831249
:1016F800031388151A3083160313A200F730A100CC
:10170800A10B842BA20B842B892B83120313881122
:101718000800F800F401F5017008F200F3017208FE
:10172800F6007308F700781C9A2B9B2BA12B7608E0
:10173800F4070318F50A7708F50701300310F60DCA
:10174800F70DFF3E031DA22B0310F80C7808031DAC
:10175800AE2BAF2B972B7508F1007408F00008002A
:1017680083160313AB00A901AA01CF2B29082B0765
:1017780084000A128A1500200A128A150A128A158C
:1017880008240A128A15013083160313A9070318BF
:10179800AA0A0030AA0729082B0784000A128A150A
:1017A80000200A128A15003A031DDB2BDC2BBA2B0A
:1017B800080083120313A001A101791CE42BE52B77
:1017C800ED2B7B0883120313A0070318A10A7C08DA
:1017D800A10701300310FB0DFC0DFF3E031DEE2B8E
:1017E80001300310FA0CF90CFF3E031DF52B7908A4
:1017F8007A04031D002C012CE12B8312031321080A
:10180800FA002008F900080083160313A40024082E
:101818000F39A1002108A2002408F039A1002108ED
:10182800A300831203130815831603132308A100CA
:1018380004300310A10CFF3E031D1D2C21080A12C1
:101848008A1539240A128A158312031388158811F8
:101858008316031322080A128A1539240A128A15D4
:101868008312031388158811080083160313A00038
:10187800201C3F2C402C442C831203130816472CA1
:1018880083120313081283160313A01C4C2C4D2C2F
:10189800512C831203138816542C831203138812B5
:1018A80083160313201D592C5A2C5E2C8312031304
:1018B8000817612C83120313081383160313A01D42
:1018C800662C672C6B2C8312031388176E2C8312DB
:1018D80003138813080083160313A7002703031DA7
:1018E800762C772C9C2C2408803EA5002508AA007D
:1018F8002A08A50004300310A50CFF3E031D7F2C09
:101908002508A6002608A8002A080F39A5002508DA
:10191800A90028080A128A156C230A128A15831648
:10192800031329080A128A156C230A128A15C62C71
:1019380002302706031DA12CA22CC62C2408C03E69
:10194800A5002508AA002A08A50004300310A50C44
:10195800FF3E031DAA2C2508A6002608A8002A0871
:101968000F39A5002508A90028080A128A156C2332
:101978000A128A158316031329080A128A156C237A
:101988000A128A15080083160313AF01AC1FCD2C69
:10199800CE2CD52CAB09AC09AB0A0319AC0AAF01A4
:1019A800AF0AAA1FD82CD92CDE2CA909AA09A90A82
:1019B8000319AA0A29082A040319E32CE42C132D75
:1019C800AE01AE0AF22C01300310A90DAA0DFF3E9C
:1019D800031DE82C0130AD002D08AE07AA1FF52C19
:1019E800F62CE72C2A082C02031DFC2C29082B02B4
:1019F800031CFF2C002D062D2908AB022A08031C06
:101A0800AC03AC0201300310AA0CA90CFF3E031D65
:101A1800072D0130AE02031D122D132DF62C2F08B1
:101A28000319172D182D1D2DAB09AC09AB0A031985
:101A3800AC0A2C08AA002B08A9000800F601F11F1F
:101A4800262D272D2E2DF009F109F00A0319F10A88
:101A5800F601F60AF31F312D322D3B2DF209F30959
:101A6800F20A0319F30A0130F4007408F606F701C4
:101A7800F801700871040319422D432D7A2DF501E0
:101A8800F50A512D01300310F00DF10DFF3E031D35
:101A9800472D0130F4007408F507F11F542D552D1A
:101AA800462D01300310F70DF80DFF3E031D562D8E
:101AB80071087302031D622D70087202031C652DE4
:101AC800662D6D2D7008F2027108031CF303F302F2
:101AD800771401300310F10CF00CFF3E031D6E2D3E
:101AE8000130F502031D792D7A2D552D760803193D
:101AF8007E2D7F2D842DF709F809F70A0319F80AB6
:101B08007808F1007708F000080083160313A6018F
:101B1800A11F8F2D902D972DA009A109A00A0319A7
:101B2800A10AA601A60AA31F9A2D9B2DA42DA209DE
:101B3800A309A20A0319A30A0130A4002408A606CF
:101B4800A701A801200821040319AB2DAC2DE32D12
:101B5800A501A50ABA2D01300310A00DA10DFF3E65
:101B6800031DB02D0130A4002408A507A11FBD2D19
:101B7800BE2DAF2D01300310A70DA80DFF3E031D8C
:101B8800BF2D21082302031DCB2D20082202031C90
:101B9800CE2DCF2DD62D2008A2022108031CA30389
:101BA800A302271401300310A10CA00CFF3E031D53
:101BB800D72D0130A502031DE22DE32DBE2D2608E9
:101BC8000319E72DE82DED2DA709A809A70A031980
:101BD800A80A2808A1002708A000080003108312FB
:101BE80003133C0D3D0DBE003E08C4004408031D10
:101BF800FE2DFF2D082E0030BD000030BC00003047
:101C0800BB000030BA006D2E3A08BE003B08BF008A
:101C18003C08C0003D08C1001F300310C10CC00CB7
:101C2800BF0CBE0CFF3E031D112E3E08C200420829
:101C3800C300BC17FF30BA05FF30BB05FF30BC0539
:101C48000030BD059630C402C41F2B2E2C2E462E04
:101C58004408803A973E0318322E332E342EFF2D37
:101C680001300310BD0CBC0CBB0CBA0CFF3E031DAD
:101C7800352E0130BE003E08C407031D442E452EF4
:101C8800342E5D2E20304402031C4B2E4C2E582E31
:101C9800FF2D0130BE000310BA0DBB0DBC0DBD0DEC
:101CA800BE0B4F2E0130C4024408031D5C2E5D2E6E
:101CB8004D2E43080319612E622E6D2EBA09BB09F9
:101CC800BC09BD09BA0A0319BB0A0319BC0A0319DE
:101CD800BD0A0800F80078080319732E742E882EA0
:101CE800F31F772E782E882E7009FA007109FB00F1
:101CF8007209FC007309FD00FA0A0319FB0A0319AB
:101D0800FC0A0319FD0A902E7308FD007208FC00F6
:101D18007108FB007008FA007308720471047004FB
:101D2800031D972E982EA12E0030F3000030F200EC
:101D38000030F1000030F000272F9630F4007408CE
:101D4800F900B32E0130F4007408F90701300310CC
:101D5800FD0CFC0CFB0CFA0CFF3E031DAB2EFE30F9
:101D68007D05031DB82EB92EA62ED52E0130F40000
:101D78007408F9070130FA07003003180130FB072F
:101D8800003003180130FC07003003180130FD074C
:101D980001300310FD0CFC0CFB0CFA0CFF3E031D7C
:101DA800CD2EFF307D05031DDA2EDB2EBA2EE72E51
:101DB8000130F9020130F4000310FA0DFB0DFC0D9F
:101DC800FD0DF40BE02EFC1BEA2EEB2EF12E02305B
:101DD80079020318F02EF12EDC2E7918F42EF52E48
:101DE800FD2EFF30FA05FF30FB057F30FC05FF3084
:101DF800FD050310F90C7908F400F501F601F70167
:101E080018300310F40DF50DF60DF70DFF3E031D08
:101E1800052F7408FA047508FB047608FC04770893
:101E2800FD0478080319192F1A2F1F2FF31F1D2FD0
:101E38001E2F1F2FFD177D08F3007C08F2007B087A
:101E4800F1007A08F00008000B1D2B2F2C2F332FE0
:101E58000B110130D0070318D10A0030D1078B1CB1
:101E6800362F372FF72F5108F1005008F000E830CF
:101E7800F2000330F3000A128A1522250A128A1585
:101E88007108FA007008F9003C30FB000030FC00D3
:101E98000A128A15DD230A128A157A088312031397
:101EA800CF007908CE004E08F0004F08F10000304E
:101EB800F11BFF30F200F30001300A128A156E267A
:101EC8000A128A15730883120313A7007208A60062
:101ED8007108A5007008A4003E30A3009930A20044
:101EE8009930A1009A30A0000A128A112F200A12F4
:101EF8008A15831203132308CB002208CA0021087D
:101F0800C9002008C8004B08A7004A08A6004908CD
:101F1800A5004808A4003E30A300C130A200043048
:101F2800A100D530A0000A128A112F200A128A15A2
:101F3800831203132308BD002208BC002108BB003C
:101F48002008BA000A128A15F2250A128A15831285
:101F580003133B0883160313BD00831203133A08C7
:101F680083160313BC008B1083120313D001D10115
:101F78004C08F0004D08F1000030F11BFF30F20072
:101F8800F30001300A128A156E260A128A157308A0
:101F980083120313A7007208A6007108A500700831
:101FA800A4004130A300E130A2009930A1009A308A
:101FB800A0000A128A1190230A128A1583120313A9
:101FC8002308BD002208BC002108BB002008BA0075
:101FD8000A128A15F2250A128A15831203133B087E
:101FE800CD003A08CC004708FF0046088A00450E95
:081FF8008300FE0E7E0E0900BD
:02400E0072FF3F
:00000001FF
